{
  "contractName": "EscrowContract",
  "abi": [
    {
      "inputs": [],
      "name": "approver",
      "outputs": [
        {
          "internalType": "address",
          "name": "",
          "type": "address"
        }
      ],
      "stateMutability": "view",
      "type": "function",
      "constant": true
    },
    {
      "inputs": [
        {
          "internalType": "address payable",
          "name": "_reciever",
          "type": "address"
        }
      ],
      "name": "deposit",
      "outputs": [],
      "stateMutability": "payable",
      "type": "function",
      "payable": true
    },
    {
      "inputs": [],
      "name": "viewApprover",
      "outputs": [
        {
          "internalType": "address",
          "name": "",
          "type": "address"
        }
      ],
      "stateMutability": "pure",
      "type": "function",
      "constant": true
    },
    {
      "inputs": [],
      "name": "approve",
      "outputs": [],
      "stateMutability": "nonpayable",
      "type": "function"
    },
    {
      "inputs": [],
      "name": "withdraw",
      "outputs": [],
      "stateMutability": "nonpayable",
      "type": "function"
    }
  ],
  "bytecode": "0x608060405234801561001057600080fd5b50610512806100206000396000f3fe60806040526004361061004a5760003560e01c806312424e3f1461004f578063141a8dd8146100665780633ccfd60b146100bd578063d93ce89c146100d4578063f340fa011461012b575b600080fd5b34801561005b57600080fd5b5061006461016f565b005b34801561007257600080fd5b5061007b61028f565b604051808273ffffffffffffffffffffffffffffffffffffffff1673ffffffffffffffffffffffffffffffffffffffff16815260200191505060405180910390f35b3480156100c957600080fd5b506100d26102a7565b005b3480156100e057600080fd5b506100e96103c6565b604051808273ffffffffffffffffffffffffffffffffffffffff1673ffffffffffffffffffffffffffffffffffffffff16815260200191505060405180910390f35b61016d6004803603602081101561014157600080fd5b81019080803573ffffffffffffffffffffffffffffffffffffffff1690602001909291905050506103e2565b005b73dd38bd942aa427fb47008a867914197c71a25a8673ffffffffffffffffffffffffffffffffffffffff163373ffffffffffffffffffffffffffffffffffffffff1614610224576040517f08c379a000000000000000000000000000000000000000000000000000000000815260040180806020018281038252601a8152602001807f53656e646572203d20617070726f76657220726571756972656400000000000081525060200191505060405180910390fd5b600160009054906101000a900473ffffffffffffffffffffffffffffffffffffffff1673ffffffffffffffffffffffffffffffffffffffff166108fc479081150290604051600060405180830381858888f1935050505015801561028c573d6000803e3d6000fd5b50565b73dd38bd942aa427fb47008a867914197c71a25a8681565b73dd38bd942aa427fb47008a867914197c71a25a8673ffffffffffffffffffffffffffffffffffffffff163373ffffffffffffffffffffffffffffffffffffffff161461035c576040517f08c379a000000000000000000000000000000000000000000000000000000000815260040180806020018281038252601a8152602001807f53656e646572203d20617070726f76657220726571756972656400000000000081525060200191505060405180910390fd5b6000809054906101000a900473ffffffffffffffffffffffffffffffffffffffff1673ffffffffffffffffffffffffffffffffffffffff166108fc479081150290604051600060405180830381858888f193505050501580156103c3573d6000803e3d6000fd5b50565b600073dd38bd942aa427fb47008a867914197c71a25a86905090565b60003411610458576040517f08c379a000000000000000000000000000000000000000000000000000000000815260040180806020018281038252601a8152602001807f4465706f7369742076616c7565203e203020726571756972656400000000000081525060200191505060405180910390fd5b336000806101000a81548173ffffffffffffffffffffffffffffffffffffffff021916908373ffffffffffffffffffffffffffffffffffffffff16021790555080600160006101000a81548173ffffffffffffffffffffffffffffffffffffffff021916908373ffffffffffffffffffffffffffffffffffffffff1602179055505056fea26469706673582212200fb5e3ed615b8c3c18f18b8e60e5a2c31f7d331772ec5170153610aae58748ea64736f6c63430006090033",
  "immutableReferences": {},
  "source": "// SPDX-License-Identifier: MIT\npragma solidity ^0.6.9;\n\n\n//delcare contract (a class)\ncontract EscrowContract {\n\n//variables (the type address will represent an address in the ethereum network) \n// sender, reciever, and approver should all have an address\n  address payable sender;\n  address payable reciever;\n  // the address here is from truffle \n  address public constant approver = 0xdD38BD942Aa427fb47008a867914197c71A25A86;\n\n\n// takes an address (where the money is being sent to)\n// marking it as external because this will allow it to be called from outside the contract\n// then we need payable because we need to tell it that its taking ether\n// THEN there is this like special object thing called message (msg) \n      // message will have some data in it (sender) basically the addressof whos sending the $$\n      //also value of whats being sent\n  function deposit(address payable _reciever) external payable {\n    //have to make messsage value greater then 0 because there has to SOME money there cant be nothin\n    require(msg.value > 0, \"Deposit value > 0 required\");\n    sender = msg.sender;\n    reciever = _reciever;\n  }\n// return address\n  function viewApprover() external pure returns(address) {\n    return (approver);\n  }\n\n// actual approval that will release the money and send it to the reciever. \n  function approve() external {\n    require(msg.sender == approver, \"Sender = approver required\");\n    address(uint160(reciever)).transfer(address(this).balance);\n  }\n\n  function withdraw() external {\n    require(msg.sender == approver, \"Sender = approver required\");\n    address(uint160(sender)).transfer(address(this).balance);\n  }\n}\n",
  "sourcePath": "/Users/eduda/Desktop/ETHPROJECT/contracts/contracts/EscrowContract.sol",
  "compiler": {
    "name": "solc",
    "version": "0.6.9+commit.3e3065ac.Emscripten.clang"
  },
  "schemaVersion": "3.2.0",
  "updatedAt": "2020-06-18T02:16:01.569Z",
  "networkType": "ethereum",
  "devdoc": {
    "methods": {}
  },
  "userdoc": {
    "methods": {}
  }
}